{"abi":[{"type":"constructor","inputs":[{"name":"_deployer","type":"address","internalType":"address"},{"name":"_fundingGoal","type":"uint256","internalType":"uint256"},{"name":"_duration","type":"uint256","internalType":"uint256"}],"stateMutability":"nonpayable"},{"type":"function","name":"checkStatus","inputs":[],"outputs":[{"name":"","type":"uint8","internalType":"enum Fundraiser.fundraiserStatus"}],"stateMutability":"view"},{"type":"function","name":"contributors","inputs":[{"name":"","type":"address","internalType":"address"}],"outputs":[{"name":"","type":"uint256","internalType":"uint256"}],"stateMutability":"view"},{"type":"function","name":"deadline","inputs":[],"outputs":[{"name":"","type":"uint256","internalType":"uint256"}],"stateMutability":"view"},{"type":"function","name":"deployer","inputs":[],"outputs":[{"name":"","type":"address","internalType":"address"}],"stateMutability":"view"},{"type":"function","name":"deposit","inputs":[],"outputs":[],"stateMutability":"payable"},{"type":"function","name":"fundingGoal","inputs":[],"outputs":[{"name":"","type":"uint256","internalType":"uint256"}],"stateMutability":"view"},{"type":"function","name":"refund","inputs":[],"outputs":[],"stateMutability":"nonpayable"},{"type":"function","name":"status","inputs":[],"outputs":[{"name":"","type":"uint8","internalType":"enum Fundraiser.fundraiserStatus"}],"stateMutability":"view"},{"type":"function","name":"totalRaised","inputs":[],"outputs":[{"name":"","type":"uint256","internalType":"uint256"}],"stateMutability":"view"},{"type":"function","name":"withdraw","inputs":[],"outputs":[],"stateMutability":"nonpayable"},{"type":"event","name":"DepositMade","inputs":[{"name":"funder","type":"address","indexed":true,"internalType":"address"},{"name":"value","type":"uint256","indexed":false,"internalType":"uint256"}],"anonymous":false},{"type":"event","name":"FundsWithdrawl","inputs":[{"name":"deployer","type":"address","indexed":true,"internalType":"address"},{"name":"amount","type":"uint256","indexed":false,"internalType":"uint256"}],"anonymous":false},{"type":"event","name":"RefundIssued","inputs":[{"name":"funder","type":"address","indexed":true,"internalType":"address"},{"name":"value","type":"uint256","indexed":false,"internalType":"uint256"}],"anonymous":false},{"type":"error","name":"DeadlineNotPassed","inputs":[]},{"type":"error","name":"DeadlinePassed","inputs":[]},{"type":"error","name":"FundraisingStatusMismatched","inputs":[]},{"type":"error","name":"GoalWasMet","inputs":[]},{"type":"error","name":"GoalWasNotMet","inputs":[]},{"type":"error","name":"NotAuthorized","inputs":[]},{"type":"error","name":"TransactionFailed","inputs":[]}],"bytecode":{"object":"0x608060405234801561000f575f5ffd5b50604051610d0e380380610d0e83398181016040528101906100319190610152565b825f5f6101000a81548173ffffffffffffffffffffffffffffffffffffffff021916908373ffffffffffffffffffffffffffffffffffffffff16021790555081600181905550804261008391906101cf565b6002819055505f6003819055505f60045f6101000a81548160ff021916908360028111156100b4576100b3610202565b5b021790555050505061022f565b5f5ffd5b5f73ffffffffffffffffffffffffffffffffffffffff82169050919050565b5f6100ee826100c5565b9050919050565b6100fe816100e4565b8114610108575f5ffd5b50565b5f81519050610119816100f5565b92915050565b5f819050919050565b6101318161011f565b811461013b575f5ffd5b50565b5f8151905061014c81610128565b92915050565b5f5f5f60608486031215610169576101686100c1565b5b5f6101768682870161010b565b93505060206101878682870161013e565b92505060406101988682870161013e565b9150509250925092565b7f4e487b71000000000000000000000000000000000000000000000000000000005f52601160045260245ffd5b5f6101d98261011f565b91506101e48361011f565b92508282019050808211156101fc576101fb6101a2565b5b92915050565b7f4e487b71000000000000000000000000000000000000000000000000000000005f52602160045260245ffd5b610ad28061023c5f395ff3fe608060405260043610610090575f3560e01c8063590e1ae311610058578063590e1ae3146101645780637a3a0e841461017a578063c5c4744c146101a4578063d0e30db0146101ce578063d5f39488146101d857610090565b80631f6d494214610094578063200d2ed2146100d057806329dcb0cf146100fa5780633b7104f2146101245780633ccfd60b1461014e575b5f5ffd5b34801561009f575f5ffd5b506100ba60048036038101906100b591906108b8565b610202565b6040516100c791906108fb565b60405180910390f35b3480156100db575f5ffd5b506100e4610217565b6040516100f19190610987565b60405180910390f35b348015610105575f5ffd5b5061010e610229565b60405161011b91906108fb565b60405180910390f35b34801561012f575f5ffd5b5061013861022f565b6040516101459190610987565b60405180910390f35b348015610159575f5ffd5b5061016261026e565b005b34801561016f575f5ffd5b506101786104cb565b005b348015610185575f5ffd5b5061018e610733565b60405161019b91906108fb565b60405180910390f35b3480156101af575f5ffd5b506101b8610739565b6040516101c591906108fb565b60405180910390f35b6101d661073f565b005b3480156101e3575f5ffd5b506101ec610836565b6040516101f991906109af565b60405180910390f35b6005602052805f5260405f205f915090505481565b60045f9054906101000a900460ff1681565b60025481565b5f60015460035410610244576001905061026b565b60025442101580156102595750600154600354105b15610267576002905061026b565b5f90505b90565b5f5f9054906101000a900473ffffffffffffffffffffffffffffffffffffffff1673ffffffffffffffffffffffffffffffffffffffff163373ffffffffffffffffffffffffffffffffffffffff16146102f3576040517fea8e4eb500000000000000000000000000000000000000000000000000000000815260040160405180910390fd5b6001546003541015610331576040517fcf78368e00000000000000000000000000000000000000000000000000000000815260040160405180910390fd5b6001600281111561034557610344610914565b5b61034d61022f565b600281111561035f5761035e610914565b5b14610396576040517f8e53fcea00000000000000000000000000000000000000000000000000000000815260040160405180910390fd5b5f4790505f5f5f9054906101000a900473ffffffffffffffffffffffffffffffffffffffff1673ffffffffffffffffffffffffffffffffffffffff16826040516103df906109f5565b5f6040518083038185875af1925050503d805f8114610419576040519150601f19603f3d011682016040523d82523d5f602084013e61041e565b606091505b5050905080610459576040517fbf961a2800000000000000000000000000000000000000000000000000000000815260040160405180910390fd5b5f5f9054906101000a900473ffffffffffffffffffffffffffffffffffffffff1673ffffffffffffffffffffffffffffffffffffffff167f1f2ee04334645dd3073a74d10a43e59730d0dc67abcf5c3cc4b587d216201ca5836040516104bf91906108fb565b60405180910390a25050565b6002544211610506576040517f2eb3543000000000000000000000000000000000000000000000000000000000815260040160405180910390fd5b60015460035410610543576040517f09b27f0100000000000000000000000000000000000000000000000000000000815260040160405180910390fd5b60028081111561055657610555610914565b5b61055e61022f565b60028111156105705761056f610914565b5b146105a7576040517f8e53fcea00000000000000000000000000000000000000000000000000000000815260040160405180910390fd5b5f60055f3373ffffffffffffffffffffffffffffffffffffffff1673ffffffffffffffffffffffffffffffffffffffff1681526020019081526020015f205490505f60055f3373ffffffffffffffffffffffffffffffffffffffff1673ffffffffffffffffffffffffffffffffffffffff1681526020019081526020015f20819055508060035f82825461063b9190610a36565b925050819055505f3373ffffffffffffffffffffffffffffffffffffffff1682604051610667906109f5565b5f6040518083038185875af1925050503d805f81146106a1576040519150601f19603f3d011682016040523d82523d5f602084013e6106a6565b606091505b50509050806106e1576040517fbf961a2800000000000000000000000000000000000000000000000000000000815260040160405180910390fd5b3373ffffffffffffffffffffffffffffffffffffffff167fa171b6942063c6f2800ce40a780edce37baa2b618571b11eedd1e69e626e7d768360405161072791906108fb565b60405180910390a25050565b60015481565b60035481565b60025442111561077b576040517f70f65caa00000000000000000000000000000000000000000000000000000000815260040160405180910390fd5b3460055f3373ffffffffffffffffffffffffffffffffffffffff1673ffffffffffffffffffffffffffffffffffffffff1681526020019081526020015f205f8282546107c79190610a69565b925050819055503460035f8282546107df9190610a69565b925050819055503373ffffffffffffffffffffffffffffffffffffffff167fd15c9547ea5c06670c0010ce19bc32d54682a4b3801ece7f3ab0c3f17106b4bb3460405161082c91906108fb565b60405180910390a2565b5f5f9054906101000a900473ffffffffffffffffffffffffffffffffffffffff1681565b5f5ffd5b5f73ffffffffffffffffffffffffffffffffffffffff82169050919050565b5f6108878261085e565b9050919050565b6108978161087d565b81146108a1575f5ffd5b50565b5f813590506108b28161088e565b92915050565b5f602082840312156108cd576108cc61085a565b5b5f6108da848285016108a4565b91505092915050565b5f819050919050565b6108f5816108e3565b82525050565b5f60208201905061090e5f8301846108ec565b92915050565b7f4e487b71000000000000000000000000000000000000000000000000000000005f52602160045260245ffd5b6003811061095257610951610914565b5b50565b5f81905061096282610941565b919050565b5f61097182610955565b9050919050565b61098181610967565b82525050565b5f60208201905061099a5f830184610978565b92915050565b6109a98161087d565b82525050565b5f6020820190506109c25f8301846109a0565b92915050565b5f81905092915050565b50565b5f6109e05f836109c8565b91506109eb826109d2565b5f82019050919050565b5f6109ff826109d5565b9150819050919050565b7f4e487b71000000000000000000000000000000000000000000000000000000005f52601160045260245ffd5b5f610a40826108e3565b9150610a4b836108e3565b9250828203905081811115610a6357610a62610a09565b5b92915050565b5f610a73826108e3565b9150610a7e836108e3565b9250828201905080821115610a9657610a95610a09565b5b9291505056fea2646970667358221220d6080774b7b8f8bf3387d4e52574388403ca96bcaaabcd977ce350b52bc6ce9264736f6c63430008210033","linkReferences":{}},"methodIdentifiers":{"checkStatus()":"3b7104f2","contributors(address)":"1f6d4942","deadline()":"29dcb0cf","deployer()":"d5f39488","deposit()":"d0e30db0","fundingGoal()":"7a3a0e84","refund()":"590e1ae3","status()":"200d2ed2","totalRaised()":"c5c4744c","withdraw()":"3ccfd60b"},"id":21}