{"abi":[{"type":"constructor","inputs":[{"name":"_candidates","type":"string[]","internalType":"string[]"},{"name":"_duration","type":"uint256","internalType":"uint256"}],"stateMutability":"nonpayable"},{"type":"function","name":"candidates","inputs":[{"name":"","type":"uint256","internalType":"uint256"}],"outputs":[{"name":"","type":"string","internalType":"string"}],"stateMutability":"view"},{"type":"function","name":"endTime","inputs":[],"outputs":[{"name":"","type":"uint256","internalType":"uint256"}],"stateMutability":"view"},{"type":"function","name":"getCandidateLength","inputs":[],"outputs":[{"name":"","type":"uint256","internalType":"uint256"}],"stateMutability":"view"},{"type":"function","name":"getVoteCount","inputs":[{"name":"candidateIndex","type":"uint256","internalType":"uint256"}],"outputs":[{"name":"","type":"uint256","internalType":"uint256"}],"stateMutability":"view"},{"type":"function","name":"getWinner","inputs":[],"outputs":[{"name":"","type":"string","internalType":"string"}],"stateMutability":"view"},{"type":"function","name":"vote","inputs":[{"name":"candidateIndex","type":"uint256","internalType":"uint256"}],"outputs":[],"stateMutability":"nonpayable"},{"type":"function","name":"votes","inputs":[{"name":"","type":"uint256","internalType":"uint256"}],"outputs":[{"name":"","type":"uint256","internalType":"uint256"}],"stateMutability":"view"},{"type":"event","name":"VoteCasted","inputs":[{"name":"voter","type":"address","indexed":true,"internalType":"address"},{"name":"candidate","type":"string","indexed":false,"internalType":"string"}],"anonymous":false},{"type":"event","name":"WinnerDeclared","inputs":[{"name":"candidate","type":"string","indexed":false,"internalType":"string"}],"anonymous":false},{"type":"error","name":"invalidCandidate","inputs":[]},{"type":"error","name":"userHasAlreadyVoted","inputs":[]},{"type":"error","name":"votingHasEnded","inputs":[]},{"type":"error","name":"votingStillOngoing","inputs":[]}],"bytecode":{"object":"0x608060405234801561000f575f5ffd5b5060405161156638038061156683398181016040528101906100319190610314565b816001908161004091906109bd565b50804261004d9190610a1f565b5f81905550815167ffffffffffffffff81111561006d5761006c6100d7565b5b60405190808252806020026020018201604052801561009b5781602001602082028036833780820191505090505b50600390816100aa9190610b21565b505050610ba5565b5f604051905090565b5f5ffd5b5f5ffd5b5f5ffd5b5f601f19601f8301169050919050565b7f4e487b71000000000000000000000000000000000000000000000000000000005f52604160045260245ffd5b61010d826100c7565b810181811067ffffffffffffffff8211171561012c5761012b6100d7565b5b80604052505050565b5f61013e6100b2565b905061014a8282610104565b919050565b5f67ffffffffffffffff821115610169576101686100d7565b5b602082029050602081019050919050565b5f5ffd5b5f5ffd5b5f67ffffffffffffffff82111561019c5761019b6100d7565b5b6101a5826100c7565b9050602081019050919050565b8281835e5f83830152505050565b5f6101d26101cd84610182565b610135565b9050828152602081018484840111156101ee576101ed61017e565b5b6101f98482856101b2565b509392505050565b5f82601f830112610215576102146100c3565b5b81516102258482602086016101c0565b91505092915050565b5f61024061023b8461014f565b610135565b905080838252602082019050602084028301858111156102635761026261017a565b5b835b818110156102aa57805167ffffffffffffffff811115610288576102876100c3565b5b8086016102958982610201565b85526020850194505050602081019050610265565b5050509392505050565b5f82601f8301126102c8576102c76100c3565b5b81516102d884826020860161022e565b91505092915050565b5f819050919050565b6102f3816102e1565b81146102fd575f5ffd5b50565b5f8151905061030e816102ea565b92915050565b5f5f6040838503121561032a576103296100bb565b5b5f83015167ffffffffffffffff811115610347576103466100bf565b5b610353858286016102b4565b925050602061036485828601610300565b9150509250929050565b5f819050602082019050919050565b5f81549050919050565b7f4e487b71000000000000000000000000000000000000000000000000000000005f52601160045260245ffd5b5f8190506001806001038301049050919050565b5f819050815f5260205f209050919050565b7f4e487b71000000000000000000000000000000000000000000000000000000005f52602260045260245ffd5b5f600282049050600182168061041e57607f821691505b602082108103610431576104306103da565b5b50919050565b5f819050815f5260205f209050919050565b5f82821c905092915050565b6104857fffffffffffffffffffffffffffffffffffffffffffffffffffffffffffffffff83602003600802610449565b815481168255505050565b5f82821b905092915050565b5f600883026104cb7fffffffffffffffffffffffffffffffffffffffffffffffffffffffffffffffff82610490565b6104d58683610490565b95508019841693508086168417925050509392505050565b5f819050919050565b5f61051061050b610506846102e1565b6104ed565b6102e1565b9050919050565b5f819050919050565b610529836104f6565b61053d61053582610517565b84845461049c565b825550505050565b5f5f905090565b610554610545565b61055f818484610520565b505050565b5f5b828110156105855761057a5f82840161054c565b600181019050610566565b505050565b5f6105995f1984600802610449565b1980831691505092915050565b5f6105b1838361058a565b9150826002028217905092915050565b6105ca81610437565b6105d58382546105a6565b8083555f825550505050565b5f6020601f8301049050919050565b602084105f811461064b57601f8411600181146106185761061186856105a6565b8355610645565b61062183610437565b610639600161062f886105e1565b0360018301610564565b61064387856105c1565b505b506106a5565b610654856105e1565b61065d856105e1565b61066684610437565b828101601f89168015610681576106808160018403610455565b5b848411156106965761069585850383610564565b5b60018a60020217875550505050505b5050505050565b680100000000000000008411156106c6576106c56100d7565b5b602083105f811461070f57602085105f81146106ed576106e686856105a6565b8355610709565b8360ff19169350836106fe84610437565b556001866002020183555b50610719565b6001856002020182555b5050505050565b805461072b81610407565b808411156107405761073f848284866106ac565b5b8084101561075557610754848284866105f0565b5b50505050565b5f5b8281101561077c576107715f82840161054c565b60018101905061075d565b505050565b61078b5f82610720565b50565b7f4e487b71000000000000000000000000000000000000000000000000000000005f525f60045260245ffd5b5f82146107ca576107c961078e565b5b6107d381610781565b5050565b5f5b828110156107f8576107ed5f8284016107ba565b6001810190506107d9565b505050565b818310156108345761080e826103b4565b610817846103b4565b610820836103c8565b81810161082f838503826107d7565b505050505b505050565b68010000000000000000821115610853576108526100d7565b5b61085c8161037d565b82825561086a8382846107fd565b505050565b5f81519050919050565b5f81519050919050565b5f81519050919050565b601f8211156108db57828211156108da576108a781610437565b6108b0836105e1565b6108b9856105e1565b60208610156108c6575f90505b8083016108d582840382610564565b505050505b5b505050565b6108e982610883565b67ffffffffffffffff811115610902576109016100d7565b5b61090c8254610407565b61091782828561088d565b5f60209050601f831160018114610948575f8415610936578287015190505b61094085826105a6565b8655506109a7565b601f19841661095686610437565b5f5b8281101561097d57848901518255600182019150602085019450602081019050610958565b8683101561099a5784890151610996601f89168261058a565b8355505b6001600288020188555050505b505050505050565b6109b982826108e0565b5050565b6109c68261086f565b6109d08183610839565b6109d98361036e565b6109e2836103c8565b5f5b83811015610a17576109f583610879565b6109ff81846109af565b602084019350600183019250506001810190506109e4565b505050505050565b5f610a29826102e1565b9150610a34836102e1565b9250828201905080821115610a4c57610a4b610387565b5b92915050565b5f81549050919050565b5f8190506001806001038301049050919050565b5f819050815f5260205f209050919050565b81831015610ab957610a9382610a5c565b610a9c84610a5c565b610aa583610a70565b818101610ab48385038261075b565b505050505b505050565b68010000000000000000821115610ad857610ad76100d7565b5b610ae181610a52565b828255610aef838284610a82565b505050565b5f81519050919050565b5f610b0982516102e1565b80915050919050565b5f819050602082019050919050565b610b2a82610af4565b67ffffffffffffffff811115610b4357610b426100d7565b5b610b4d8183610abe565b610b5683610b12565b610b5f83610a70565b600183045f5b81811015610b9c575f610b7785610afe565b610b8081610517565b8092506020870196505050808285015550600181019050610b65565b50505050505050565b6109b480610bb25f395ff3fe608060405234801561000f575f5ffd5b506004361061007b575f3560e01c80635df81330116100595780635df81330146100e95780638e7ea5b214610119578063b2c2f2e814610137578063f7522a83146101675761007b565b80630121b93f1461007f5780633197cbb61461009b5780633477ee2e146100b9575b5f5ffd5b610099600480360381019061009491906106ea565b610185565b005b6100a3610376565b6040516100b09190610724565b60405180910390f35b6100d360048036038101906100ce91906106ea565b61037b565b6040516100e091906107ad565b60405180910390f35b61010360048036038101906100fe91906106ea565b610421565b6040516101109190610724565b60405180910390f35b610121610441565b60405161012e91906107ad565b60405180910390f35b610151600480360381019061014c91906106ea565b610644565b60405161015e9190610724565b60405180910390f35b61016f6106a7565b60405161017c9190610724565b60405180910390f35b5f5442106101bf576040517fdde6188c00000000000000000000000000000000000000000000000000000000815260040160405180910390fd5b6001151560025f3373ffffffffffffffffffffffffffffffffffffffff1673ffffffffffffffffffffffffffffffffffffffff1681526020019081526020015f205f9054906101000a900460ff16151503610246576040517fbc5b175d00000000000000000000000000000000000000000000000000000000815260040160405180910390fd5b6001805490508110610284576040517f05b8f12900000000000000000000000000000000000000000000000000000000815260040160405180910390fd5b600160025f3373ffffffffffffffffffffffffffffffffffffffff1673ffffffffffffffffffffffffffffffffffffffff1681526020019081526020015f205f6101000a81548160ff021916908315150217905550600381815481106102ed576102ec6107cd565b5b905f5260205f20015f81548092919061030590610827565b91905055503373ffffffffffffffffffffffffffffffffffffffff167fb7821d50dfbda5ea310faebbeac5217bc1bb0cabe463e76b80e48d11e57df09860018381548110610356576103556107cd565b5b905f5260205f200160405161036b919061095e565b60405180910390a250565b5f5481565b6001818154811061038a575f80fd5b905f5260205f20015f9150905080546103a29061089b565b80601f01602080910402602001604051908101604052809291908181526020018280546103ce9061089b565b80156104195780601f106103f057610100808354040283529160200191610419565b820191905f5260205f20905b8154815290600101906020018083116103fc57829003601f168201915b505050505081565b60038181548110610430575f80fd5b905f5260205f20015f915090505481565b60605f5442101561047e576040517f7f34bf0100000000000000000000000000000000000000000000000000000000815260040160405180910390fd5b5f5f90505f5f90505f5f90505f5f90505b6001805490508110156105475783600382815481106104b1576104b06107cd565b5b905f5260205f20015411156104ea57600381815481106104d4576104d36107cd565b5b905f5260205f20015493508092505f915061053c565b83600382815481106104ff576104fe6107cd565b5b905f5260205f20015414801561053157505f60038281548110610525576105246107cd565b5b905f5260205f20015414155b1561053b57600191505b5b80600101905061048f565b505f8314806105535750805b15610598576040518060400160405280600381526020017f74696500000000000000000000000000000000000000000000000000000000008152509350505050610641565b600182815481106105ac576105ab6107cd565b5b905f5260205f200180546105bf9061089b565b80601f01602080910402602001604051908101604052809291908181526020018280546105eb9061089b565b80156106365780601f1061060d57610100808354040283529160200191610636565b820191905f5260205f20905b81548152906001019060200180831161061957829003601f168201915b505050505093505050505b90565b5f6001805490508210610683576040517f05b8f12900000000000000000000000000000000000000000000000000000000815260040160405180910390fd5b60038281548110610697576106966107cd565b5b905f5260205f2001549050919050565b5f600180549050905090565b5f5ffd5b5f819050919050565b6106c9816106b7565b81146106d3575f5ffd5b50565b5f813590506106e4816106c0565b92915050565b5f602082840312156106ff576106fe6106b3565b5b5f61070c848285016106d6565b91505092915050565b61071e816106b7565b82525050565b5f6020820190506107375f830184610715565b92915050565b5f81519050919050565b5f82825260208201905092915050565b8281835e5f83830152505050565b5f601f19601f8301169050919050565b5f61077f8261073d565b6107898185610747565b9350610799818560208601610757565b6107a281610765565b840191505092915050565b5f6020820190508181035f8301526107c58184610775565b905092915050565b7f4e487b71000000000000000000000000000000000000000000000000000000005f52603260045260245ffd5b7f4e487b71000000000000000000000000000000000000000000000000000000005f52601160045260245ffd5b5f610831826106b7565b91507fffffffffffffffffffffffffffffffffffffffffffffffffffffffffffffffff8203610863576108626107fa565b5b600182019050919050565b7f4e487b71000000000000000000000000000000000000000000000000000000005f52602260045260245ffd5b5f60028204905060018216806108b257607f821691505b6020821081036108c5576108c461086e565b5b50919050565b5f819050815f5260205f209050919050565b5f81546108e98161089b565b6108f38186610747565b9450600182165f811461090d576001811461092357610955565b60ff198316865281151560200286019350610955565b61092c856108cb565b5f5b8381101561094d5781548189015260018201915060208101905061092e565b808801955050505b50505092915050565b5f6020820190508181035f83015261097681846108dd565b90509291505056fea2646970667358221220099263b02471759f8e290e1e82c5e42bd9fadf48b248cfebf6e60801e813613c64736f6c63430008210033","linkReferences":{}},"methodIdentifiers":{"candidates(uint256)":"3477ee2e","endTime()":"3197cbb6","getCandidateLength()":"f7522a83","getVoteCount(uint256)":"b2c2f2e8","getWinner()":"8e7ea5b2","vote(uint256)":"0121b93f","votes(uint256)":"5df81330"},"id":22}