{
  "abi": [
    {
      "type": "constructor",
      "inputs": [
        {
          "name": "_deployer",
          "type": "address",
          "internalType": "address"
        },
        {
          "name": "_fundingGoal",
          "type": "uint256",
          "internalType": "uint256"
        },
        {
          "name": "_duration",
          "type": "uint256",
          "internalType": "uint256"
        }
      ],
      "stateMutability": "nonpayable"
    },
    {
      "type": "function",
      "name": "checkStatus",
      "inputs": [],
      "outputs": [
        {
          "name": "",
          "type": "uint8",
          "internalType": "enum Fundraiser.fundraiserStatus"
        }
      ],
      "stateMutability": "nonpayable"
    },
    {
      "type": "function",
      "name": "contributors",
      "inputs": [
        {
          "name": "",
          "type": "address",
          "internalType": "address"
        }
      ],
      "outputs": [
        {
          "name": "",
          "type": "uint256",
          "internalType": "uint256"
        }
      ],
      "stateMutability": "view"
    },
    {
      "type": "function",
      "name": "deadline",
      "inputs": [],
      "outputs": [
        {
          "name": "",
          "type": "uint256",
          "internalType": "uint256"
        }
      ],
      "stateMutability": "view"
    },
    {
      "type": "function",
      "name": "deployer",
      "inputs": [],
      "outputs": [
        {
          "name": "",
          "type": "address",
          "internalType": "address"
        }
      ],
      "stateMutability": "view"
    },
    {
      "type": "function",
      "name": "deposit",
      "inputs": [],
      "outputs": [],
      "stateMutability": "payable"
    },
    {
      "type": "function",
      "name": "fundingGoal",
      "inputs": [],
      "outputs": [
        {
          "name": "",
          "type": "uint256",
          "internalType": "uint256"
        }
      ],
      "stateMutability": "view"
    },
    {
      "type": "function",
      "name": "refund",
      "inputs": [],
      "outputs": [],
      "stateMutability": "nonpayable"
    },
    {
      "type": "function",
      "name": "status",
      "inputs": [],
      "outputs": [
        {
          "name": "",
          "type": "uint8",
          "internalType": "enum Fundraiser.fundraiserStatus"
        }
      ],
      "stateMutability": "view"
    },
    {
      "type": "function",
      "name": "totalRaised",
      "inputs": [],
      "outputs": [
        {
          "name": "",
          "type": "uint256",
          "internalType": "uint256"
        }
      ],
      "stateMutability": "view"
    },
    {
      "type": "function",
      "name": "withdraw",
      "inputs": [],
      "outputs": [],
      "stateMutability": "nonpayable"
    },
    {
      "type": "event",
      "name": "DepositMade",
      "inputs": [
        {
          "name": "funder",
          "type": "address",
          "indexed": true,
          "internalType": "address"
        },
        {
          "name": "value",
          "type": "uint256",
          "indexed": false,
          "internalType": "uint256"
        }
      ],
      "anonymous": false
    },
    {
      "type": "event",
      "name": "FundsWithdrawl",
      "inputs": [
        {
          "name": "deployer",
          "type": "address",
          "indexed": true,
          "internalType": "address"
        },
        {
          "name": "amount",
          "type": "uint256",
          "indexed": false,
          "internalType": "uint256"
        }
      ],
      "anonymous": false
    },
    {
      "type": "event",
      "name": "RefundIssued",
      "inputs": [
        {
          "name": "funder",
          "type": "address",
          "indexed": true,
          "internalType": "address"
        },
        {
          "name": "value",
          "type": "uint256",
          "indexed": false,
          "internalType": "uint256"
        }
      ],
      "anonymous": false
    },
    {
      "type": "error",
      "name": "DeadlineNotPassed",
      "inputs": []
    },
    {
      "type": "error",
      "name": "DeadlinePassed",
      "inputs": []
    },
    {
      "type": "error",
      "name": "FundraisingStatusMismatched",
      "inputs": []
    },
    {
      "type": "error",
      "name": "GoalWasMet",
      "inputs": []
    },
    {
      "type": "error",
      "name": "GoalWasNotMet",
      "inputs": []
    },
    {
      "type": "error",
      "name": "NotAuthorized",
      "inputs": []
    },
    {
      "type": "error",
      "name": "TransactionFailed",
      "inputs": []
    }
  ],
  "bytecode": {
    "object": "0x608060405234801561000f575f5ffd5b50604051610d92380380610d9283398181016040528101906100319190610152565b825f5f6101000a81548173ffffffffffffffffffffffffffffffffffffffff021916908373ffffffffffffffffffffffffffffffffffffffff16021790555081600181905550804261008391906101cf565b6002819055505f6003819055505f60045f6101000a81548160ff021916908360028111156100b4576100b3610202565b5b021790555050505061022f565b5f5ffd5b5f73ffffffffffffffffffffffffffffffffffffffff82169050919050565b5f6100ee826100c5565b9050919050565b6100fe816100e4565b8114610108575f5ffd5b50565b5f81519050610119816100f5565b92915050565b5f819050919050565b6101318161011f565b811461013b575f5ffd5b50565b5f8151905061014c81610128565b92915050565b5f5f5f60608486031215610169576101686100c1565b5b5f6101768682870161010b565b93505060206101878682870161013e565b92505060406101988682870161013e565b9150509250925092565b7f4e487b71000000000000000000000000000000000000000000000000000000005f52601160045260245ffd5b5f6101d98261011f565b91506101e48361011f565b92508282019050808211156101fc576101fb6101a2565b5b92915050565b7f4e487b71000000000000000000000000000000000000000000000000000000005f52602160045260245ffd5b610b568061023c5f395ff3fe608060405260043610610090575f3560e01c8063590e1ae311610058578063590e1ae3146101645780637a3a0e841461017a578063c5c4744c146101a4578063d0e30db0146101ce578063d5f39488146101d857610090565b80631f6d494214610094578063200d2ed2146100d057806329dcb0cf146100fa5780633b7104f2146101245780633ccfd60b1461014e575b5f5ffd5b34801561009f575f5ffd5b506100ba60048036038101906100b5919061093c565b610202565b6040516100c7919061097f565b60405180910390f35b3480156100db575f5ffd5b506100e4610217565b6040516100f19190610a0b565b60405180910390f35b348015610105575f5ffd5b5061010e610229565b60405161011b919061097f565b60405180910390f35b34801561012f575f5ffd5b5061013861022f565b6040516101459190610a0b565b60405180910390f35b348015610159575f5ffd5b506101626102f2565b005b34801561016f575f5ffd5b5061017861054f565b005b348015610185575f5ffd5b5061018e6107b7565b60405161019b919061097f565b60405180910390f35b3480156101af575f5ffd5b506101b86107bd565b6040516101c5919061097f565b60405180910390f35b6101d66107c3565b005b3480156101e3575f5ffd5b506101ec6108ba565b6040516101f99190610a33565b60405180910390f35b6005602052805f5260405f205f915090505481565b60045f9054906101000a900460ff1681565b60025481565b5f6001546003541061026a57600160045f6101000a81548160ff021916908360028111156102605761025f610998565b5b02179055506102de565b600254421015801561027f5750600154600354105b156102b357600260045f6101000a81548160ff021916908360028111156102a9576102a8610998565b5b02179055506102dd565b5f60045f6101000a81548160ff021916908360028111156102d7576102d6610998565b5b02179055505b5b60045f9054906101000a900460ff16905090565b5f5f9054906101000a900473ffffffffffffffffffffffffffffffffffffffff1673ffffffffffffffffffffffffffffffffffffffff163373ffffffffffffffffffffffffffffffffffffffff1614610377576040517fea8e4eb500000000000000000000000000000000000000000000000000000000815260040160405180910390fd5b60015460035410156103b5576040517fcf78368e00000000000000000000000000000000000000000000000000000000815260040160405180910390fd5b600160028111156103c9576103c8610998565b5b6103d161022f565b60028111156103e3576103e2610998565b5b1461041a576040517f8e53fcea00000000000000000000000000000000000000000000000000000000815260040160405180910390fd5b5f4790505f5f5f9054906101000a900473ffffffffffffffffffffffffffffffffffffffff1673ffffffffffffffffffffffffffffffffffffffff168260405161046390610a79565b5f6040518083038185875af1925050503d805f811461049d576040519150601f19603f3d011682016040523d82523d5f602084013e6104a2565b606091505b50509050806104dd576040517fbf961a2800000000000000000000000000000000000000000000000000000000815260040160405180910390fd5b5f5f9054906101000a900473ffffffffffffffffffffffffffffffffffffffff1673ffffffffffffffffffffffffffffffffffffffff167f1f2ee04334645dd3073a74d10a43e59730d0dc67abcf5c3cc4b587d216201ca583604051610543919061097f565b60405180910390a25050565b600254421161058a576040517f2eb3543000000000000000000000000000000000000000000000000000000000815260040160405180910390fd5b600154600354106105c7576040517f09b27f0100000000000000000000000000000000000000000000000000000000815260040160405180910390fd5b6002808111156105da576105d9610998565b5b6105e261022f565b60028111156105f4576105f3610998565b5b1461062b576040517f8e53fcea00000000000000000000000000000000000000000000000000000000815260040160405180910390fd5b5f60055f3373ffffffffffffffffffffffffffffffffffffffff1673ffffffffffffffffffffffffffffffffffffffff1681526020019081526020015f205490505f60055f3373ffffffffffffffffffffffffffffffffffffffff1673ffffffffffffffffffffffffffffffffffffffff1681526020019081526020015f20819055508060035f8282546106bf9190610aba565b925050819055505f3373ffffffffffffffffffffffffffffffffffffffff16826040516106eb90610a79565b5f6040518083038185875af1925050503d805f8114610725576040519150601f19603f3d011682016040523d82523d5f602084013e61072a565b606091505b5050905080610765576040517fbf961a2800000000000000000000000000000000000000000000000000000000815260040160405180910390fd5b3373ffffffffffffffffffffffffffffffffffffffff167fa171b6942063c6f2800ce40a780edce37baa2b618571b11eedd1e69e626e7d76836040516107ab919061097f565b60405180910390a25050565b60015481565b60035481565b6002544211156107ff576040517f70f65caa00000000000000000000000000000000000000000000000000000000815260040160405180910390fd5b3460055f3373ffffffffffffffffffffffffffffffffffffffff1673ffffffffffffffffffffffffffffffffffffffff1681526020019081526020015f205f82825461084b9190610aed565b925050819055503460035f8282546108639190610aed565b925050819055503373ffffffffffffffffffffffffffffffffffffffff167fd15c9547ea5c06670c0010ce19bc32d54682a4b3801ece7f3ab0c3f17106b4bb346040516108b0919061097f565b60405180910390a2565b5f5f9054906101000a900473ffffffffffffffffffffffffffffffffffffffff1681565b5f5ffd5b5f73ffffffffffffffffffffffffffffffffffffffff82169050919050565b5f61090b826108e2565b9050919050565b61091b81610901565b8114610925575f5ffd5b50565b5f8135905061093681610912565b92915050565b5f60208284031215610951576109506108de565b5b5f61095e84828501610928565b91505092915050565b5f819050919050565b61097981610967565b82525050565b5f6020820190506109925f830184610970565b92915050565b7f4e487b71000000000000000000000000000000000000000000000000000000005f52602160045260245ffd5b600381106109d6576109d5610998565b5b50565b5f8190506109e6826109c5565b919050565b5f6109f5826109d9565b9050919050565b610a05816109eb565b82525050565b5f602082019050610a1e5f8301846109fc565b92915050565b610a2d81610901565b82525050565b5f602082019050610a465f830184610a24565b92915050565b5f81905092915050565b50565b5f610a645f83610a4c565b9150610a6f82610a56565b5f82019050919050565b5f610a8382610a59565b9150819050919050565b7f4e487b71000000000000000000000000000000000000000000000000000000005f52601160045260245ffd5b5f610ac482610967565b9150610acf83610967565b9250828203905081811115610ae757610ae6610a8d565b5b92915050565b5f610af782610967565b9150610b0283610967565b9250828201905080821115610b1a57610b19610a8d565b5b9291505056fea264697066735822122081c93c86f16e5f52e0928a97231123e9211f00ac236e0d082f6f078fb55900da64736f6c63430008210033",
    "linkReferences": {}
  },
  "methodIdentifiers": {
    "checkStatus()": "3b7104f2",
    "contributors(address)": "1f6d4942",
    "deadline()": "29dcb0cf",
    "deployer()": "d5f39488",
    "deposit()": "d0e30db0",
    "fundingGoal()": "7a3a0e84",
    "refund()": "590e1ae3",
    "status()": "200d2ed2",
    "totalRaised()": "c5c4744c",
    "withdraw()": "3ccfd60b"
  },
  "id": 21
}